{
  "_format": "hh-sol-artifact-1",
  "contractName": "Ride",
  "sourceName": "contracts/Ride.sol",
  "abi": [
    {
      "inputs": [
        {
          "internalType": "address payable",
          "name": "_riderAddr",
          "type": "address"
        },
        {
          "internalType": "address payable",
          "name": "_driverAddr",
          "type": "address"
        },
        {
          "internalType": "string[]",
          "name": "_fromAddr",
          "type": "string[]"
        },
        {
          "internalType": "string[]",
          "name": "_toAddr",
          "type": "string[]"
        },
        {
          "internalType": "bytes32",
          "name": "_amount",
          "type": "bytes32"
        }
      ],
      "stateMutability": "nonpayable",
      "type": "constructor"
    },
    {
      "anonymous": false,
      "inputs": [
        {
          "indexed": true,
          "internalType": "address payable",
          "name": "_driverAddr",
          "type": "address"
        },
        {
          "indexed": true,
          "internalType": "address payable",
          "name": "_riderAddr",
          "type": "address"
        }
      ],
      "name": "UpdateConfirmationEvent",
      "type": "event"
    },
    {
      "inputs": [],
      "name": "getRideInfo",
      "outputs": [
        {
          "internalType": "address",
          "name": "",
          "type": "address"
        },
        {
          "internalType": "address",
          "name": "",
          "type": "address"
        },
        {
          "internalType": "string[]",
          "name": "",
          "type": "string[]"
        },
        {
          "internalType": "string[]",
          "name": "",
          "type": "string[]"
        },
        {
          "internalType": "bytes32",
          "name": "",
          "type": "bytes32"
        },
        {
          "internalType": "bool",
          "name": "",
          "type": "bool"
        },
        {
          "internalType": "bool",
          "name": "",
          "type": "bool"
        },
        {
          "internalType": "bool",
          "name": "",
          "type": "bool"
        }
      ],
      "stateMutability": "view",
      "type": "function"
    },
    {
      "inputs": [
        {
          "internalType": "address payable",
          "name": "_driverAddr",
          "type": "address"
        }
      ],
      "name": "updateDriverAddress",
      "outputs": [],
      "stateMutability": "nonpayable",
      "type": "function"
    },
    {
      "inputs": [
        {
          "internalType": "bool",
          "name": "_status",
          "type": "bool"
        }
      ],
      "name": "updateDriverConfirmation",
      "outputs": [],
      "stateMutability": "nonpayable",
      "type": "function"
    },
    {
      "inputs": [
        {
          "internalType": "bool",
          "name": "_complete",
          "type": "bool"
        }
      ],
      "name": "updateRideComplete",
      "outputs": [],
      "stateMutability": "nonpayable",
      "type": "function"
    },
    {
      "inputs": [
        {
          "internalType": "bool",
          "name": "_status",
          "type": "bool"
        }
      ],
      "name": "updateRiderConfirmation",
      "outputs": [],
      "stateMutability": "nonpayable",
      "type": "function"
    }
  ],
  "bytecode": "0x60806040523480156200001157600080fd5b50604051620012ec380380620012ec833981810160405281019062000037919062000569565b846000806101000a81548173ffffffffffffffffffffffffffffffffffffffff021916908373ffffffffffffffffffffffffffffffffffffffff16021790555083600160006101000a81548173ffffffffffffffffffffffffffffffffffffffff021916908373ffffffffffffffffffffffffffffffffffffffff1602179055508260029080519060200190620000d09291906200014d565b508160039080519060200190620000e99291906200014d565b50806004819055506000600560006101000a81548160ff0219169083151502179055506000600560016101000a81548160ff0219169083151502179055506000600560026101000a81548160ff021916908315150217905550505050505062000961565b8280548282559060005260206000209081019282156200019a579160200282015b82811115620001995782518290816200018891906200087a565b50916020019190600101906200016e565b5b509050620001a99190620001ad565b5090565b5b80821115620001d15760008181620001c79190620001d5565b50600101620001ae565b5090565b508054620001e39062000669565b6000825580601f10620001f7575062000218565b601f0160209004906000526020600020908101906200021791906200021b565b5b50565b5b80821115620002365760008160009055506001016200021c565b5090565b6000604051905090565b600080fd5b600080fd5b600073ffffffffffffffffffffffffffffffffffffffff82169050919050565b60006200027b826200024e565b9050919050565b6200028d816200026e565b81146200029957600080fd5b50565b600081519050620002ad8162000282565b92915050565b600080fd5b6000601f19601f8301169050919050565b7f4e487b7100000000000000000000000000000000000000000000000000000000600052604160045260246000fd5b6200030382620002b8565b810181811067ffffffffffffffff82111715620003255762000324620002c9565b5b80604052505050565b60006200033a6200023a565b9050620003488282620002f8565b919050565b600067ffffffffffffffff8211156200036b576200036a620002c9565b5b602082029050602081019050919050565b600080fd5b600080fd5b600067ffffffffffffffff821115620003a457620003a3620002c9565b5b620003af82620002b8565b9050602081019050919050565b60005b83811015620003dc578082015181840152602081019050620003bf565b60008484015250505050565b6000620003ff620003f98462000386565b6200032e565b9050828152602081018484840111156200041e576200041d62000381565b5b6200042b848285620003bc565b509392505050565b600082601f8301126200044b576200044a620002b3565b5b81516200045d848260208601620003e8565b91505092915050565b60006200047d62000477846200034d565b6200032e565b90508083825260208201905060208402830185811115620004a357620004a26200037c565b5b835b81811015620004f157805167ffffffffffffffff811115620004cc57620004cb620002b3565b5b808601620004db898262000433565b85526020850194505050602081019050620004a5565b5050509392505050565b600082601f830112620005135762000512620002b3565b5b81516200052584826020860162000466565b91505092915050565b6000819050919050565b62000543816200052e565b81146200054f57600080fd5b50565b600081519050620005638162000538565b92915050565b600080600080600060a0868803121562000588576200058762000244565b5b600062000598888289016200029c565b9550506020620005ab888289016200029c565b945050604086015167ffffffffffffffff811115620005cf57620005ce62000249565b5b620005dd88828901620004fb565b935050606086015167ffffffffffffffff81111562000601576200060062000249565b5b6200060f88828901620004fb565b9250506080620006228882890162000552565b9150509295509295909350565b600081519050919050565b7f4e487b7100000000000000000000000000000000000000000000000000000000600052602260045260246000fd5b600060028204905060018216806200068257607f821691505b6020821081036200069857620006976200063a565b5b50919050565b60008190508160005260206000209050919050565b60006020601f8301049050919050565b600082821b905092915050565b600060088302620007027fffffffffffffffffffffffffffffffffffffffffffffffffffffffffffffffff82620006c3565b6200070e8683620006c3565b95508019841693508086168417925050509392505050565b6000819050919050565b6000819050919050565b60006200075b620007556200074f8462000726565b62000730565b62000726565b9050919050565b6000819050919050565b62000777836200073a565b6200078f620007868262000762565b848454620006d0565b825550505050565b600090565b620007a662000797565b620007b38184846200076c565b505050565b5b81811015620007db57620007cf6000826200079c565b600181019050620007b9565b5050565b601f8211156200082a57620007f4816200069e565b620007ff84620006b3565b810160208510156200080f578190505b620008276200081e85620006b3565b830182620007b8565b50505b505050565b600082821c905092915050565b60006200084f600019846008026200082f565b1980831691505092915050565b60006200086a83836200083c565b9150826002028217905092915050565b62000885826200062f565b67ffffffffffffffff811115620008a157620008a0620002c9565b5b620008ad825462000669565b620008ba828285620007df565b600060209050601f831160018114620008f25760008415620008dd578287015190505b620008e985826200085c565b86555062000959565b601f19841662000902866200069e565b60005b828110156200092c5784890151825560018201915060208501945060208101905062000905565b868310156200094c578489015162000948601f8916826200083c565b8355505b6001600288020188555050505b505050505050565b61097b80620009716000396000f3fe608060405234801561001057600080fd5b50600436106100575760003560e01c806306ab2e061461005c578063114dba9c14610078578063415f3dc31461009d578063530cce55146100b957806381696320146100d5575b600080fd5b61007660048036038101906100719190610589565b6100f1565b005b610080610163565b604051610094989796959493929190610771565b60405180910390f35b6100b760048036038101906100b29190610589565b6103aa565b005b6100d360048036038101906100ce919061083b565b61041c565b005b6100ef60048036038101906100ea9190610589565b6104da565b005b801515600560009054906101000a900460ff16151503610146576040517f08c379a000000000000000000000000000000000000000000000000000000000815260040161013d906108c5565b60405180910390fd5b80600560006101000a81548160ff02191690831515021790555050565b60008060608060008060008060008054906101000a900473ffffffffffffffffffffffffffffffffffffffff16600160009054906101000a900473ffffffffffffffffffffffffffffffffffffffff1660026003600454600560009054906101000a900460ff16600560019054906101000a900460ff16600560029054906101000a900460ff1685805480602002602001604051908101604052809291908181526020016000905b828210156102b757838290600052602060002001805461022a90610914565b80601f016020809104026020016040519081016040528092919081815260200182805461025690610914565b80156102a35780601f10610278576101008083540402835291602001916102a3565b820191906000526020600020905b81548152906001019060200180831161028657829003601f168201915b50505050508152602001906001019061020b565b50505050955084805480602002602001604051908101604052809291908181526020016000905b8282101561038a5783829060005260206000200180546102fd90610914565b80601f016020809104026020016040519081016040528092919081815260200182805461032990610914565b80156103765780601f1061034b57610100808354040283529160200191610376565b820191906000526020600020905b81548152906001019060200180831161035957829003601f168201915b5050505050815260200190600101906102de565b505050509450975097509750975097509750975097509091929394959697565b801515600560029054906101000a900460ff161515036103ff576040517f08c379a00000000000000000000000000000000000000000000000000000000081526004016103f6906108c5565b60405180910390fd5b80600560026101000a81548160ff02191690831515021790555050565b80600160006101000a81548173ffffffffffffffffffffffffffffffffffffffff021916908373ffffffffffffffffffffffffffffffffffffffff16021790555060008054906101000a900473ffffffffffffffffffffffffffffffffffffffff1673ffffffffffffffffffffffffffffffffffffffff168173ffffffffffffffffffffffffffffffffffffffff167f1fceffeeb023eb0adeba901d55c274290298e737e7e9b57ef93f9c86594b006460405160405180910390a350565b801515600560019054906101000a900460ff1615150361052f576040517f08c379a0000000000000000000000000000000000000000000000000000000008152600401610526906108c5565b60405180910390fd5b80600560016101000a81548160ff02191690831515021790555050565b600080fd5b60008115159050919050565b61056681610551565b811461057157600080fd5b50565b6000813590506105838161055d565b92915050565b60006020828403121561059f5761059e61054c565b5b60006105ad84828501610574565b91505092915050565b600073ffffffffffffffffffffffffffffffffffffffff82169050919050565b60006105e1826105b6565b9050919050565b6105f1816105d6565b82525050565b600081519050919050565b600082825260208201905092915050565b6000819050602082019050919050565b600081519050919050565b600082825260208201905092915050565b60005b8381101561065d578082015181840152602081019050610642565b60008484015250505050565b6000601f19601f8301169050919050565b600061068582610623565b61068f818561062e565b935061069f81856020860161063f565b6106a881610669565b840191505092915050565b60006106bf838361067a565b905092915050565b6000602082019050919050565b60006106df826105f7565b6106e98185610602565b9350836020820285016106fb85610613565b8060005b85811015610737578484038952815161071885826106b3565b9450610723836106c7565b925060208a019950506001810190506106ff565b50829750879550505050505092915050565b6000819050919050565b61075c81610749565b82525050565b61076b81610551565b82525050565b600061010082019050610787600083018b6105e8565b610794602083018a6105e8565b81810360408301526107a681896106d4565b905081810360608301526107ba81886106d4565b90506107c96080830187610753565b6107d660a0830186610762565b6107e360c0830185610762565b6107f060e0830184610762565b9998505050505050505050565b6000610808826105b6565b9050919050565b610818816107fd565b811461082357600080fd5b50565b6000813590506108358161080f565b92915050565b6000602082840312156108515761085061054c565b5b600061085f84828501610826565b91505092915050565b600082825260208201905092915050565b7f536f6d65206572726f72206f6363757272656421000000000000000000000000600082015250565b60006108af601483610868565b91506108ba82610879565b602082019050919050565b600060208201905081810360008301526108de816108a2565b9050919050565b7f4e487b7100000000000000000000000000000000000000000000000000000000600052602260045260246000fd5b6000600282049050600182168061092c57607f821691505b60208210810361093f5761093e6108e5565b5b5091905056fea26469706673582212209f95f9c487a3644ce642baadb2f4e3e1162a7f2acff88d65ea70b07922661f8e64736f6c63430008110033",
  "linkReferences": {},
  "deployedLinkReferences": {}
}