{
  "_format": "hh-sol-artifact-1",
  "contractName": "Infra",
  "sourceName": "contracts/Infra.sol",
  "abi": [
    {
      "inputs": [],
      "stateMutability": "nonpayable",
      "type": "constructor"
    },
    {
      "anonymous": false,
      "inputs": [
        {
          "indexed": true,
          "internalType": "address",
          "name": "_address",
          "type": "address"
        },
        {
          "indexed": false,
          "internalType": "bytes32",
          "name": "name",
          "type": "bytes32"
        }
      ],
      "name": "DriverRegister",
      "type": "event"
    },
    {
      "anonymous": false,
      "inputs": [
        {
          "indexed": true,
          "internalType": "address",
          "name": "_address",
          "type": "address"
        },
        {
          "indexed": false,
          "internalType": "bytes32",
          "name": "name",
          "type": "bytes32"
        }
      ],
      "name": "RiderRegister",
      "type": "event"
    },
    {
      "anonymous": false,
      "inputs": [
        {
          "indexed": false,
          "internalType": "address payable",
          "name": "_riderAddr",
          "type": "address"
        },
        {
          "indexed": false,
          "internalType": "address payable",
          "name": "_driverAddr",
          "type": "address"
        },
        {
          "indexed": false,
          "internalType": "address",
          "name": "rideAddr",
          "type": "address"
        }
      ],
      "name": "requestDriverEvent",
      "type": "event"
    },
    {
      "inputs": [
        {
          "internalType": "address payable",
          "name": "_riderAddr",
          "type": "address"
        }
      ],
      "name": "cancelRide",
      "outputs": [
        {
          "internalType": "bool",
          "name": "",
          "type": "bool"
        }
      ],
      "stateMutability": "nonpayable",
      "type": "function"
    },
    {
      "inputs": [
        {
          "internalType": "address",
          "name": "",
          "type": "address"
        }
      ],
      "name": "driversMapping",
      "outputs": [
        {
          "internalType": "bytes32",
          "name": "name",
          "type": "bytes32"
        },
        {
          "internalType": "bytes32",
          "name": "contact",
          "type": "bytes32"
        },
        {
          "internalType": "bytes32",
          "name": "email",
          "type": "bytes32"
        },
        {
          "internalType": "bytes32",
          "name": "carNo",
          "type": "bytes32"
        },
        {
          "internalType": "enum Infra.roles",
          "name": "role",
          "type": "uint8"
        },
        {
          "internalType": "enum Infra.currentStatus",
          "name": "status",
          "type": "uint8"
        },
        {
          "internalType": "address payable",
          "name": "driverAddr",
          "type": "address"
        }
      ],
      "stateMutability": "view",
      "type": "function"
    },
    {
      "inputs": [
        {
          "internalType": "address payable",
          "name": "_driverAddr",
          "type": "address"
        }
      ],
      "name": "getDriverInfo",
      "outputs": [
        {
          "components": [
            {
              "internalType": "bytes32",
              "name": "name",
              "type": "bytes32"
            },
            {
              "internalType": "bytes32",
              "name": "contact",
              "type": "bytes32"
            },
            {
              "internalType": "bytes32",
              "name": "email",
              "type": "bytes32"
            },
            {
              "internalType": "bytes32",
              "name": "carNo",
              "type": "bytes32"
            },
            {
              "internalType": "enum Infra.roles",
              "name": "role",
              "type": "uint8"
            },
            {
              "internalType": "enum Infra.currentStatus",
              "name": "status",
              "type": "uint8"
            },
            {
              "internalType": "address payable",
              "name": "driverAddr",
              "type": "address"
            },
            {
              "internalType": "address[]",
              "name": "rides",
              "type": "address[]"
            }
          ],
          "internalType": "struct Infra.driverStruct",
          "name": "_driverStruct",
          "type": "tuple"
        }
      ],
      "stateMutability": "view",
      "type": "function"
    },
    {
      "inputs": [
        {
          "internalType": "address payable",
          "name": "_riderAddr",
          "type": "address"
        }
      ],
      "name": "getRiderInfo",
      "outputs": [
        {
          "components": [
            {
              "internalType": "bytes32",
              "name": "name",
              "type": "bytes32"
            },
            {
              "internalType": "bytes32",
              "name": "contact",
              "type": "bytes32"
            },
            {
              "internalType": "bytes32",
              "name": "email",
              "type": "bytes32"
            },
            {
              "internalType": "enum Infra.roles",
              "name": "role",
              "type": "uint8"
            },
            {
              "internalType": "address payable",
              "name": "riderAddr",
              "type": "address"
            },
            {
              "internalType": "address[]",
              "name": "rides",
              "type": "address[]"
            }
          ],
          "internalType": "struct Infra.riderStruct",
          "name": "_riderStruct",
          "type": "tuple"
        }
      ],
      "stateMutability": "view",
      "type": "function"
    },
    {
      "inputs": [
        {
          "internalType": "bytes32",
          "name": "_name",
          "type": "bytes32"
        },
        {
          "internalType": "bytes32",
          "name": "_contact",
          "type": "bytes32"
        },
        {
          "internalType": "bytes32",
          "name": "_email",
          "type": "bytes32"
        },
        {
          "internalType": "bytes32",
          "name": "_carNo",
          "type": "bytes32"
        },
        {
          "internalType": "uint256",
          "name": "_role",
          "type": "uint256"
        },
        {
          "internalType": "address payable",
          "name": "_driverAddr",
          "type": "address"
        }
      ],
      "name": "registerDriver",
      "outputs": [],
      "stateMutability": "nonpayable",
      "type": "function"
    },
    {
      "inputs": [
        {
          "internalType": "bytes32",
          "name": "_name",
          "type": "bytes32"
        },
        {
          "internalType": "bytes32",
          "name": "_contact",
          "type": "bytes32"
        },
        {
          "internalType": "bytes32",
          "name": "_email",
          "type": "bytes32"
        },
        {
          "internalType": "uint256",
          "name": "_role",
          "type": "uint256"
        },
        {
          "internalType": "address payable",
          "name": "_riderAddr",
          "type": "address"
        }
      ],
      "name": "registerRider",
      "outputs": [],
      "stateMutability": "nonpayable",
      "type": "function"
    },
    {
      "inputs": [
        {
          "internalType": "address payable",
          "name": "_riderAddr",
          "type": "address"
        },
        {
          "internalType": "address payable",
          "name": "_driverAddr",
          "type": "address"
        },
        {
          "internalType": "address",
          "name": "_rideAddr",
          "type": "address"
        }
      ],
      "name": "requestDriver",
      "outputs": [],
      "stateMutability": "nonpayable",
      "type": "function"
    },
    {
      "inputs": [
        {
          "internalType": "address payable",
          "name": "_riderAddr",
          "type": "address"
        },
        {
          "internalType": "string[]",
          "name": "_fromAddr",
          "type": "string[]"
        },
        {
          "internalType": "string[]",
          "name": "_toAddr",
          "type": "string[]"
        },
        {
          "internalType": "bytes32",
          "name": "_amount",
          "type": "bytes32"
        }
      ],
      "name": "requestRide",
      "outputs": [
        {
          "internalType": "address",
          "name": "",
          "type": "address"
        }
      ],
      "stateMutability": "nonpayable",
      "type": "function"
    },
    {
      "inputs": [],
      "name": "returnDriversAvailable",
      "outputs": [
        {
          "internalType": "address[]",
          "name": "",
          "type": "address[]"
        }
      ],
      "stateMutability": "view",
      "type": "function"
    },
    {
      "inputs": [
        {
          "internalType": "address",
          "name": "",
          "type": "address"
        }
      ],
      "name": "ridersMapping",
      "outputs": [
        {
          "internalType": "bytes32",
          "name": "name",
          "type": "bytes32"
        },
        {
          "internalType": "bytes32",
          "name": "contact",
          "type": "bytes32"
        },
        {
          "internalType": "bytes32",
          "name": "email",
          "type": "bytes32"
        },
        {
          "internalType": "enum Infra.roles",
          "name": "role",
          "type": "uint8"
        },
        {
          "internalType": "address payable",
          "name": "riderAddr",
          "type": "address"
        }
      ],
      "stateMutability": "view",
      "type": "function"
    },
    {
      "inputs": [
        {
          "internalType": "address payable",
          "name": "_driverAddr",
          "type": "address"
        },
        {
          "internalType": "uint256",
          "name": "_status",
          "type": "uint256"
        }
      ],
      "name": "updateDriverStatus",
      "outputs": [],
      "stateMutability": "nonpayable",
      "type": "function"
    },
    {
      "inputs": [
        {
          "internalType": "address",
          "name": "_driverAddr",
          "type": "address"
        },
        {
          "internalType": "address",
          "name": "_rideAddr",
          "type": "address"
        }
      ],
      "name": "updateRideInformation",
      "outputs": [],
      "stateMutability": "nonpayable",
      "type": "function"
    }
  ],
  "bytecode": "0x608060405234801561001057600080fd5b5061353c806100206000396000f3fe60806040523480156200001157600080fd5b5060043610620000c35760003560e01c806356b863bc116200007b57806356b863bc14620001cc57806372f2071914620002085780638813f6411462000228578063b58d4e791462000262578063ea1d92251462000282578063f3100ed814620002b857620000c3565b8062d1b48c14620000c8578063213d36b914620000ea578063219a7f2714620001205780632ede948e14620001565780634b1d0154146200017657806353437eac14620001ac575b600080fd5b620000d2620002d8565b604051620000e1919062001339565b60405180910390f35b6200010860048036038101906200010291906200164f565b62000368565b60405162000117919062001710565b60405180910390f35b6200013e60048036038101906200013891906200172d565b6200045e565b6040516200014d91906200198d565b60405180910390f35b6200017460048036038101906200016e9190620019ec565b6200064a565b005b6200019460048036038101906200018e91906200172d565b620008ec565b604051620001a3919062001a91565b60405180910390f35b620001ca6004803603810190620001c4919062001aae565b620009d3565b005b620001ea6004803603810190620001e4919062001b26565b62000a59565b604051620001ff979695949392919062001b9c565b60405180910390f35b62000226600480360381019062000220919062001c19565b62000ad5565b005b62000246600480360381019062000240919062001b26565b62000b17565b6040516200025995949392919062001c75565b60405180910390f35b6200028060048036038101906200027a919062001cd2565b62000b7a565b005b620002a060048036038101906200029a91906200172d565b62000ee7565b604051620002af919062001e03565b60405180910390f35b620002d66004803603810190620002d0919062001e27565b62001087565b005b606060008054806020026020016040519081016040528092919081815260200182805480156200035e57602002820191906000526020600020905b8160009054906101000a900473ffffffffffffffffffffffffffffffffffffffff1673ffffffffffffffffffffffffffffffffffffffff168152602001906001019080831162000313575b5050505050905090565b6000808560008686866040516200037f906200112e565b6200038f95949392919062001fc7565b604051809103906000f080158015620003ac573d6000803e3d6000fd5b509050600160008773ffffffffffffffffffffffffffffffffffffffff1673ffffffffffffffffffffffffffffffffffffffff168152602001908152602001600020600401819080600181540180825580915050600190039060005260206000200160009091909190916101000a81548173ffffffffffffffffffffffffffffffffffffffff021916908373ffffffffffffffffffffffffffffffffffffffff16021790555080915050949350505050565b620004686200113c565b600260008373ffffffffffffffffffffffffffffffffffffffff1673ffffffffffffffffffffffffffffffffffffffff16815260200190815260200160002060405180610100016040529081600082015481526020016001820154815260200160028201548152602001600382015481526020016004820160009054906101000a900460ff16600181111562000503576200050262001770565b5b600181111562000518576200051762001770565b5b81526020016004820160019054906101000a900460ff16600181111562000544576200054362001770565b5b600181111562000559576200055862001770565b5b81526020016004820160029054906101000a900473ffffffffffffffffffffffffffffffffffffffff1673ffffffffffffffffffffffffffffffffffffffff1673ffffffffffffffffffffffffffffffffffffffff168152602001600582018054806020026020016040519081016040528092919081815260200182805480156200063a57602002820191906000526020600020905b8160009054906101000a900473ffffffffffffffffffffffffffffffffffffffff1673ffffffffffffffffffffffffffffffffffffffff1681526020019060010190808311620005ef575b5050505050815250509050919050565b803373ffffffffffffffffffffffffffffffffffffffff168173ffffffffffffffffffffffffffffffffffffffff1614620006bc576040517f08c379a0000000000000000000000000000000000000000000000000000000008152600401620006b39062002093565b60405180910390fd5b85600160008473ffffffffffffffffffffffffffffffffffffffff1673ffffffffffffffffffffffffffffffffffffffff1681526020019081526020016000206000018190555084600160008473ffffffffffffffffffffffffffffffffffffffff1673ffffffffffffffffffffffffffffffffffffffff1681526020019081526020016000206001018190555083600160008473ffffffffffffffffffffffffffffffffffffffff1673ffffffffffffffffffffffffffffffffffffffff16815260200190815260200160002060020181905550826001811115620007a757620007a662001770565b5b600160008473ffffffffffffffffffffffffffffffffffffffff1673ffffffffffffffffffffffffffffffffffffffff16815260200190815260200160002060030160006101000a81548160ff021916908360018111156200080e576200080d62001770565b5b021790555081600160008473ffffffffffffffffffffffffffffffffffffffff1673ffffffffffffffffffffffffffffffffffffffff16815260200190815260200160002060030160016101000a81548173ffffffffffffffffffffffffffffffffffffffff021916908373ffffffffffffffffffffffffffffffffffffffff1602179055508173ffffffffffffffffffffffffffffffffffffffff167f116f04dd86285f4d2f708f1984c5fc0bca25d762fa06fd9defe4c22f6f4aa36b87604051620008dc9190620020b5565b60405180910390a2505050505050565b600080600160008473ffffffffffffffffffffffffffffffffffffffff1673ffffffffffffffffffffffffffffffffffffffff168152602001908152602001600020600401805490509050600160008473ffffffffffffffffffffffffffffffffffffffff1673ffffffffffffffffffffffffffffffffffffffff16815260200190815260200160002060040160018262000988919062002101565b815481106200099c576200099b6200213c565b5b9060005260206000200160006101000a81549073ffffffffffffffffffffffffffffffffffffffff02191690556001915050919050565b806001811115620009e957620009e862001770565b5b600260008473ffffffffffffffffffffffffffffffffffffffff1673ffffffffffffffffffffffffffffffffffffffff16815260200190815260200160002060040160016101000a81548160ff0219169083600181111562000a505762000a4f62001770565b5b02179055505050565b60026020528060005260406000206000915090508060000154908060010154908060020154908060030154908060040160009054906101000a900460ff16908060040160019054906101000a900460ff16908060040160029054906101000a900473ffffffffffffffffffffffffffffffffffffffff16905087565b7f0bd3effa8c6dfdb23eaf76019fccdd9aa8a4ad537034a8b59ffda48c4ccc5e9d83838360405162000b0a939291906200216b565b60405180910390a1505050565b60016020528060005260406000206000915090508060000154908060010154908060020154908060030160009054906101000a900460ff16908060030160019054906101000a900473ffffffffffffffffffffffffffffffffffffffff16905085565b803373ffffffffffffffffffffffffffffffffffffffff168173ffffffffffffffffffffffffffffffffffffffff161462000bec576040517f08c379a000000000000000000000000000000000000000000000000000000000815260040162000be390620021f8565b60405180910390fd5b86600260008473ffffffffffffffffffffffffffffffffffffffff1673ffffffffffffffffffffffffffffffffffffffff1681526020019081526020016000206000018190555085600260008473ffffffffffffffffffffffffffffffffffffffff1673ffffffffffffffffffffffffffffffffffffffff1681526020019081526020016000206001018190555084600260008473ffffffffffffffffffffffffffffffffffffffff1673ffffffffffffffffffffffffffffffffffffffff1681526020019081526020016000206002018190555083600260008473ffffffffffffffffffffffffffffffffffffffff1673ffffffffffffffffffffffffffffffffffffffff168152602001908152602001600020600301819055506000600181111562000d1f5762000d1e62001770565b5b600260008473ffffffffffffffffffffffffffffffffffffffff1673ffffffffffffffffffffffffffffffffffffffff16815260200190815260200160002060040160016101000a81548160ff0219169083600181111562000d865762000d8562001770565b5b021790555082600181111562000da15762000da062001770565b5b600260008473ffffffffffffffffffffffffffffffffffffffff1673ffffffffffffffffffffffffffffffffffffffff16815260200190815260200160002060040160006101000a81548160ff0219169083600181111562000e085762000e0762001770565b5b021790555081600260008473ffffffffffffffffffffffffffffffffffffffff1673ffffffffffffffffffffffffffffffffffffffff16815260200190815260200160002060040160026101000a81548173ffffffffffffffffffffffffffffffffffffffff021916908373ffffffffffffffffffffffffffffffffffffffff1602179055508173ffffffffffffffffffffffffffffffffffffffff167fe6f787aa1ef51ebecae17b89bb1cc8e91b8d2ff46b508e1ac5d8268b979549058860405162000ed69190620020b5565b60405180910390a250505050505050565b62000ef1620011cd565b600160008373ffffffffffffffffffffffffffffffffffffffff1673ffffffffffffffffffffffffffffffffffffffff1681526020019081526020016000206040518060c00160405290816000820154815260200160018201548152602001600282015481526020016003820160009054906101000a900460ff16600181111562000f815762000f8062001770565b5b600181111562000f965762000f9562001770565b5b81526020016003820160019054906101000a900473ffffffffffffffffffffffffffffffffffffffff1673ffffffffffffffffffffffffffffffffffffffff1673ffffffffffffffffffffffffffffffffffffffff168152602001600482018054806020026020016040519081016040528092919081815260200182805480156200107757602002820191906000526020600020905b8160009054906101000a900473ffffffffffffffffffffffffffffffffffffffff1673ffffffffffffffffffffffffffffffffffffffff16815260200190600101908083116200102c575b5050505050815250509050919050565b600160008373ffffffffffffffffffffffffffffffffffffffff1673ffffffffffffffffffffffffffffffffffffffff168152602001908152602001600020600401819080600181540180825580915050600190039060005260206000200160009091909190916101000a81548173ffffffffffffffffffffffffffffffffffffffff021916908373ffffffffffffffffffffffffffffffffffffffff1602179055505050565b6112ec806200221b83390190565b604051806101000160405280600080191681526020016000801916815260200160008019168152602001600080191681526020016000600181111562001187576200118662001770565b5b815260200160006001811115620011a357620011a262001770565b5b8152602001600073ffffffffffffffffffffffffffffffffffffffff168152602001606081525090565b6040518060c00160405280600080191681526020016000801916815260200160008019168152602001600060018111156200120d576200120c62001770565b5b8152602001600073ffffffffffffffffffffffffffffffffffffffff168152602001606081525090565b600081519050919050565b600082825260208201905092915050565b6000819050602082019050919050565b600073ffffffffffffffffffffffffffffffffffffffff82169050919050565b6000620012908262001263565b9050919050565b620012a28162001283565b82525050565b6000620012b6838362001297565b60208301905092915050565b6000602082019050919050565b6000620012dc8262001237565b620012e8818562001242565b9350620012f58362001253565b8060005b838110156200132c578151620013108882620012a8565b97506200131d83620012c2565b925050600181019050620012f9565b5085935050505092915050565b60006020820190508181036000830152620013558184620012cf565b905092915050565b6000604051905090565b600080fd5b600080fd5b60006200137e8262001263565b9050919050565b620013908162001371565b81146200139c57600080fd5b50565b600081359050620013b08162001385565b92915050565b600080fd5b6000601f19601f8301169050919050565b7f4e487b7100000000000000000000000000000000000000000000000000000000600052604160045260246000fd5b6200140682620013bb565b810181811067ffffffffffffffff82111715620014285762001427620013cc565b5b80604052505050565b60006200143d6200135d565b90506200144b8282620013fb565b919050565b600067ffffffffffffffff8211156200146e576200146d620013cc565b5b602082029050602081019050919050565b600080fd5b600080fd5b600067ffffffffffffffff821115620014a757620014a6620013cc565b5b620014b282620013bb565b9050602081019050919050565b82818337600083830152505050565b6000620014e5620014df8462001489565b62001431565b90508281526020810184848401111562001504576200150362001484565b5b62001511848285620014bf565b509392505050565b600082601f830112620015315762001530620013b6565b5b813562001543848260208601620014ce565b91505092915050565b6000620015636200155d8462001450565b62001431565b905080838252602082019050602084028301858111156200158957620015886200147f565b5b835b81811015620015d757803567ffffffffffffffff811115620015b257620015b1620013b6565b5b808601620015c1898262001519565b855260208501945050506020810190506200158b565b5050509392505050565b600082601f830112620015f957620015f8620013b6565b5b81356200160b8482602086016200154c565b91505092915050565b6000819050919050565b620016298162001614565b81146200163557600080fd5b50565b60008135905062001649816200161e565b92915050565b600080600080608085870312156200166c576200166b62001367565b5b60006200167c878288016200139f565b945050602085013567ffffffffffffffff811115620016a0576200169f6200136c565b5b620016ae87828801620015e1565b935050604085013567ffffffffffffffff811115620016d257620016d16200136c565b5b620016e087828801620015e1565b9250506060620016f38782880162001638565b91505092959194509250565b6200170a8162001283565b82525050565b6000602082019050620017276000830184620016ff565b92915050565b60006020828403121562001746576200174562001367565b5b600062001756848285016200139f565b91505092915050565b6200176a8162001614565b82525050565b7f4e487b7100000000000000000000000000000000000000000000000000000000600052602160045260246000fd5b60028110620017b357620017b262001770565b5b50565b6000819050620017c6826200179f565b919050565b6000620017d882620017b6565b9050919050565b620017ea81620017cb565b82525050565b6002811062001804576200180362001770565b5b50565b60008190506200181782620017f0565b919050565b6000620018298262001807565b9050919050565b6200183b816200181c565b82525050565b6200184c8162001371565b82525050565b600082825260208201905092915050565b6000620018708262001237565b6200187c818562001852565b9350620018898362001253565b8060005b83811015620018c0578151620018a48882620012a8565b9750620018b183620012c2565b9250506001810190506200188d565b5085935050505092915050565b600061010083016000830151620018e860008601826200175f565b506020830151620018fd60208601826200175f565b5060408301516200191260408601826200175f565b5060608301516200192760608601826200175f565b5060808301516200193c6080860182620017df565b5060a08301516200195160a086018262001830565b5060c08301516200196660c086018262001841565b5060e083015184820360e086015262001980828262001863565b9150508091505092915050565b60006020820190508181036000830152620019a98184620018cd565b905092915050565b6000819050919050565b620019c681620019b1565b8114620019d257600080fd5b50565b600081359050620019e681620019bb565b92915050565b600080600080600060a0868803121562001a0b5762001a0a62001367565b5b600062001a1b8882890162001638565b955050602062001a2e8882890162001638565b945050604062001a418882890162001638565b935050606062001a5488828901620019d5565b925050608062001a67888289016200139f565b9150509295509295909350565b60008115159050919050565b62001a8b8162001a74565b82525050565b600060208201905062001aa8600083018462001a80565b92915050565b6000806040838503121562001ac85762001ac762001367565b5b600062001ad8858286016200139f565b925050602062001aeb85828601620019d5565b9150509250929050565b62001b008162001283565b811462001b0c57600080fd5b50565b60008135905062001b208162001af5565b92915050565b60006020828403121562001b3f5762001b3e62001367565b5b600062001b4f8482850162001b0f565b91505092915050565b62001b638162001614565b82525050565b62001b7481620017cb565b82525050565b62001b85816200181c565b82525050565b62001b968162001371565b82525050565b600060e08201905062001bb3600083018a62001b58565b62001bc2602083018962001b58565b62001bd1604083018862001b58565b62001be0606083018762001b58565b62001bef608083018662001b69565b62001bfe60a083018562001b7a565b62001c0d60c083018462001b8b565b98975050505050505050565b60008060006060848603121562001c355762001c3462001367565b5b600062001c45868287016200139f565b935050602062001c58868287016200139f565b925050604062001c6b8682870162001b0f565b9150509250925092565b600060a08201905062001c8c600083018862001b58565b62001c9b602083018762001b58565b62001caa604083018662001b58565b62001cb9606083018562001b69565b62001cc8608083018462001b8b565b9695505050505050565b60008060008060008060c0878903121562001cf25762001cf162001367565b5b600062001d0289828a0162001638565b965050602062001d1589828a0162001638565b955050604062001d2889828a0162001638565b945050606062001d3b89828a0162001638565b935050608062001d4e89828a01620019d5565b92505060a062001d6189828a016200139f565b9150509295509295509295565b600060c08301600083015162001d8860008601826200175f565b50602083015162001d9d60208601826200175f565b50604083015162001db260408601826200175f565b50606083015162001dc76060860182620017df565b50608083015162001ddc608086018262001841565b5060a083015184820360a086015262001df6828262001863565b9150508091505092915050565b6000602082019050818103600083015262001e1f818462001d6e565b905092915050565b6000806040838503121562001e415762001e4062001367565b5b600062001e518582860162001b0f565b925050602062001e648582860162001b0f565b9150509250929050565b600081519050919050565b600082825260208201905092915050565b6000819050602082019050919050565b600081519050919050565b600082825260208201905092915050565b60005b8381101562001ed657808201518184015260208101905062001eb9565b60008484015250505050565b600062001eef8262001e9a565b62001efb818562001ea5565b935062001f0d81856020860162001eb6565b62001f1881620013bb565b840191505092915050565b600062001f31838362001ee2565b905092915050565b6000602082019050919050565b600062001f538262001e6e565b62001f5f818562001e79565b93508360208202850162001f738562001e8a565b8060005b8581101562001fb5578484038952815162001f93858262001f23565b945062001fa08362001f39565b925060208a0199505060018101905062001f77565b50829750879550505050505092915050565b600060a08201905062001fde600083018862001b8b565b62001fed602083018762001b8b565b818103604083015262002001818662001f46565b9050818103606083015262002017818562001f46565b905062002028608083018462001b58565b9695505050505050565b600082825260208201905092915050565b7f43616e6e6f742072656769737465722072696465720000000000000000000000600082015250565b60006200207b60158362002032565b9150620020888262002043565b602082019050919050565b60006020820190508181036000830152620020ae816200206c565b9050919050565b6000602082019050620020cc600083018462001b58565b92915050565b7f4e487b7100000000000000000000000000000000000000000000000000000000600052601160045260246000fd5b60006200210e82620019b1565b91506200211b83620019b1565b9250828203905081811115620021365762002135620020d2565b5b92915050565b7f4e487b7100000000000000000000000000000000000000000000000000000000600052603260045260246000fd5b600060608201905062002182600083018662001b8b565b62002191602083018562001b8b565b620021a06040830184620016ff565b949350505050565b7f43616e6e6f742072656769737465722064726976657200000000000000000000600082015250565b6000620021e060168362002032565b9150620021ed82620021a8565b602082019050919050565b600060208201905081810360008301526200221381620021d1565b905091905056fe60806040523480156200001157600080fd5b50604051620012ec380380620012ec833981810160405281019062000037919062000569565b846000806101000a81548173ffffffffffffffffffffffffffffffffffffffff021916908373ffffffffffffffffffffffffffffffffffffffff16021790555083600160006101000a81548173ffffffffffffffffffffffffffffffffffffffff021916908373ffffffffffffffffffffffffffffffffffffffff1602179055508260029080519060200190620000d09291906200014d565b508160039080519060200190620000e99291906200014d565b50806004819055506000600560006101000a81548160ff0219169083151502179055506000600560016101000a81548160ff0219169083151502179055506000600560026101000a81548160ff021916908315150217905550505050505062000961565b8280548282559060005260206000209081019282156200019a579160200282015b82811115620001995782518290816200018891906200087a565b50916020019190600101906200016e565b5b509050620001a99190620001ad565b5090565b5b80821115620001d15760008181620001c79190620001d5565b50600101620001ae565b5090565b508054620001e39062000669565b6000825580601f10620001f7575062000218565b601f0160209004906000526020600020908101906200021791906200021b565b5b50565b5b80821115620002365760008160009055506001016200021c565b5090565b6000604051905090565b600080fd5b600080fd5b600073ffffffffffffffffffffffffffffffffffffffff82169050919050565b60006200027b826200024e565b9050919050565b6200028d816200026e565b81146200029957600080fd5b50565b600081519050620002ad8162000282565b92915050565b600080fd5b6000601f19601f8301169050919050565b7f4e487b7100000000000000000000000000000000000000000000000000000000600052604160045260246000fd5b6200030382620002b8565b810181811067ffffffffffffffff82111715620003255762000324620002c9565b5b80604052505050565b60006200033a6200023a565b9050620003488282620002f8565b919050565b600067ffffffffffffffff8211156200036b576200036a620002c9565b5b602082029050602081019050919050565b600080fd5b600080fd5b600067ffffffffffffffff821115620003a457620003a3620002c9565b5b620003af82620002b8565b9050602081019050919050565b60005b83811015620003dc578082015181840152602081019050620003bf565b60008484015250505050565b6000620003ff620003f98462000386565b6200032e565b9050828152602081018484840111156200041e576200041d62000381565b5b6200042b848285620003bc565b509392505050565b600082601f8301126200044b576200044a620002b3565b5b81516200045d848260208601620003e8565b91505092915050565b60006200047d62000477846200034d565b6200032e565b90508083825260208201905060208402830185811115620004a357620004a26200037c565b5b835b81811015620004f157805167ffffffffffffffff811115620004cc57620004cb620002b3565b5b808601620004db898262000433565b85526020850194505050602081019050620004a5565b5050509392505050565b600082601f830112620005135762000512620002b3565b5b81516200052584826020860162000466565b91505092915050565b6000819050919050565b62000543816200052e565b81146200054f57600080fd5b50565b600081519050620005638162000538565b92915050565b600080600080600060a0868803121562000588576200058762000244565b5b600062000598888289016200029c565b9550506020620005ab888289016200029c565b945050604086015167ffffffffffffffff811115620005cf57620005ce62000249565b5b620005dd88828901620004fb565b935050606086015167ffffffffffffffff81111562000601576200060062000249565b5b6200060f88828901620004fb565b9250506080620006228882890162000552565b9150509295509295909350565b600081519050919050565b7f4e487b7100000000000000000000000000000000000000000000000000000000600052602260045260246000fd5b600060028204905060018216806200068257607f821691505b6020821081036200069857620006976200063a565b5b50919050565b60008190508160005260206000209050919050565b60006020601f8301049050919050565b600082821b905092915050565b600060088302620007027fffffffffffffffffffffffffffffffffffffffffffffffffffffffffffffffff82620006c3565b6200070e8683620006c3565b95508019841693508086168417925050509392505050565b6000819050919050565b6000819050919050565b60006200075b620007556200074f8462000726565b62000730565b62000726565b9050919050565b6000819050919050565b62000777836200073a565b6200078f620007868262000762565b848454620006d0565b825550505050565b600090565b620007a662000797565b620007b38184846200076c565b505050565b5b81811015620007db57620007cf6000826200079c565b600181019050620007b9565b5050565b601f8211156200082a57620007f4816200069e565b620007ff84620006b3565b810160208510156200080f578190505b620008276200081e85620006b3565b830182620007b8565b50505b505050565b600082821c905092915050565b60006200084f600019846008026200082f565b1980831691505092915050565b60006200086a83836200083c565b9150826002028217905092915050565b62000885826200062f565b67ffffffffffffffff811115620008a157620008a0620002c9565b5b620008ad825462000669565b620008ba828285620007df565b600060209050601f831160018114620008f25760008415620008dd578287015190505b620008e985826200085c565b86555062000959565b601f19841662000902866200069e565b60005b828110156200092c5784890151825560018201915060208501945060208101905062000905565b868310156200094c578489015162000948601f8916826200083c565b8355505b6001600288020188555050505b505050505050565b61097b80620009716000396000f3fe608060405234801561001057600080fd5b50600436106100575760003560e01c806306ab2e061461005c578063114dba9c14610078578063415f3dc31461009d578063530cce55146100b957806381696320146100d5575b600080fd5b61007660048036038101906100719190610589565b6100f1565b005b610080610163565b604051610094989796959493929190610771565b60405180910390f35b6100b760048036038101906100b29190610589565b6103aa565b005b6100d360048036038101906100ce919061083b565b61041c565b005b6100ef60048036038101906100ea9190610589565b6104da565b005b801515600560009054906101000a900460ff16151503610146576040517f08c379a000000000000000000000000000000000000000000000000000000000815260040161013d906108c5565b60405180910390fd5b80600560006101000a81548160ff02191690831515021790555050565b60008060608060008060008060008054906101000a900473ffffffffffffffffffffffffffffffffffffffff16600160009054906101000a900473ffffffffffffffffffffffffffffffffffffffff1660026003600454600560009054906101000a900460ff16600560019054906101000a900460ff16600560029054906101000a900460ff1685805480602002602001604051908101604052809291908181526020016000905b828210156102b757838290600052602060002001805461022a90610914565b80601f016020809104026020016040519081016040528092919081815260200182805461025690610914565b80156102a35780601f10610278576101008083540402835291602001916102a3565b820191906000526020600020905b81548152906001019060200180831161028657829003601f168201915b50505050508152602001906001019061020b565b50505050955084805480602002602001604051908101604052809291908181526020016000905b8282101561038a5783829060005260206000200180546102fd90610914565b80601f016020809104026020016040519081016040528092919081815260200182805461032990610914565b80156103765780601f1061034b57610100808354040283529160200191610376565b820191906000526020600020905b81548152906001019060200180831161035957829003601f168201915b5050505050815260200190600101906102de565b505050509450975097509750975097509750975097509091929394959697565b801515600560029054906101000a900460ff161515036103ff576040517f08c379a00000000000000000000000000000000000000000000000000000000081526004016103f6906108c5565b60405180910390fd5b80600560026101000a81548160ff02191690831515021790555050565b80600160006101000a81548173ffffffffffffffffffffffffffffffffffffffff021916908373ffffffffffffffffffffffffffffffffffffffff16021790555060008054906101000a900473ffffffffffffffffffffffffffffffffffffffff1673ffffffffffffffffffffffffffffffffffffffff168173ffffffffffffffffffffffffffffffffffffffff167f1fceffeeb023eb0adeba901d55c274290298e737e7e9b57ef93f9c86594b006460405160405180910390a350565b801515600560019054906101000a900460ff1615150361052f576040517f08c379a0000000000000000000000000000000000000000000000000000000008152600401610526906108c5565b60405180910390fd5b80600560016101000a81548160ff02191690831515021790555050565b600080fd5b60008115159050919050565b61056681610551565b811461057157600080fd5b50565b6000813590506105838161055d565b92915050565b60006020828403121561059f5761059e61054c565b5b60006105ad84828501610574565b91505092915050565b600073ffffffffffffffffffffffffffffffffffffffff82169050919050565b60006105e1826105b6565b9050919050565b6105f1816105d6565b82525050565b600081519050919050565b600082825260208201905092915050565b6000819050602082019050919050565b600081519050919050565b600082825260208201905092915050565b60005b8381101561065d578082015181840152602081019050610642565b60008484015250505050565b6000601f19601f8301169050919050565b600061068582610623565b61068f818561062e565b935061069f81856020860161063f565b6106a881610669565b840191505092915050565b60006106bf838361067a565b905092915050565b6000602082019050919050565b60006106df826105f7565b6106e98185610602565b9350836020820285016106fb85610613565b8060005b85811015610737578484038952815161071885826106b3565b9450610723836106c7565b925060208a019950506001810190506106ff565b50829750879550505050505092915050565b6000819050919050565b61075c81610749565b82525050565b61076b81610551565b82525050565b600061010082019050610787600083018b6105e8565b610794602083018a6105e8565b81810360408301526107a681896106d4565b905081810360608301526107ba81886106d4565b90506107c96080830187610753565b6107d660a0830186610762565b6107e360c0830185610762565b6107f060e0830184610762565b9998505050505050505050565b6000610808826105b6565b9050919050565b610818816107fd565b811461082357600080fd5b50565b6000813590506108358161080f565b92915050565b6000602082840312156108515761085061054c565b5b600061085f84828501610826565b91505092915050565b600082825260208201905092915050565b7f536f6d65206572726f72206f6363757272656421000000000000000000000000600082015250565b60006108af601483610868565b91506108ba82610879565b602082019050919050565b600060208201905081810360008301526108de816108a2565b9050919050565b7f4e487b7100000000000000000000000000000000000000000000000000000000600052602260045260246000fd5b6000600282049050600182168061092c57607f821691505b60208210810361093f5761093e6108e5565b5b5091905056fea26469706673582212209f95f9c487a3644ce642baadb2f4e3e1162a7f2acff88d65ea70b07922661f8e64736f6c63430008110033a26469706673582212200642ec2f6a5e7192762c744d45112349ca2d814686303b5e7b208b4498be0d8064736f6c63430008110033",
  "linkReferences": {},
  "deployedLinkReferences": {}
}